:020000040800F2
:1000000018220020B9020008691E0008911C00088F
:10001000651E0008F1190008AB2D00080000000063
:10002000000000000000000000000000192400088B
:10003000F519000800000000C12200082D25000865
:10004000D3020008D3020008D3020008D30200083C
:10005000D3020008D3020008D3020008D30200082C
:10006000D3020008D3020008D3020008D30200081C
:10007000D3020008D3020008D3020008D30200080C
:10008000D3020008D3020008D3020008D3020008FC
:10009000D3020008D3020008D3020008F9190008AF
:1000A000D3020008D3020008D3020008D3020008DC
:1000B00091250008C1250008D3020008D3020008DA
:1000C000D3020008D3020008D3020008D3020008BC
:1000D000D3020008D927000801290008F5290008E3
:1000E000D3020008D3020008D3020008D30200089C
:1000F000D3020008D3020008D3020008D30200088C
:10010000D3020008D3020008D3020008D30200087B
:10011000D3020008D3020008D3020008DD2500083E
:10012000D3020008D3020008D3020008D30200085B
:1001300000F002F800F0B0F80AA090E8000C824449
:100140008344AAF10107DA4501D100F0A5F8AFF226
:10015000090EBAE80F0013F0010F18BFFB1A43F0A5
:1001600001031847803C0000A03C00000A444FF007
:10017000000C10F8013B13F0070408BF10F8014B06
:100180001D1108BF10F8015B641E05D010F8016B4B
:10019000641E01F8016BF9D113F0080F1EBF10F8AF
:1001A000014BAD1C0C1B09D16D1E58BF01F801CBD2
:1001B000FAD505E014F8016B01F8016B6D1EF9D555
:1001C0009142D6D37047000000230024002500266A
:1001D000103A28BF78C1FBD8520728BF30C148BFAA
:1001E0000B6070476E2900F0B882702900F02384FC
:1001F000662903F08985652903F08685672903F060
:1002000083856129AFF3008003681B0A28BF41F092
:100210008001692900F0D080642900F0CD80752923
:1002200000F0CA806F2900F0B083782900F0EF83D6
:10023000E92900F04B83E42900F04883F52900F018
:100240004583EF2900F0AD83F82900F0EE830368C1
:10025000DB0928BF41F08001632900F0BA827329CD
:1002600000F0BF82E32900F04F86F32900F05486A6
:10027000002070471FB500F0A5FE040000200021FB
:1002800003F03CFB401C60600020002103F020FBD9
:10029000E0601FBD10B510BD00F066FE1146FFF70F
:1002A000E9FF03F067F800F043FF03B4FFF7F2FF44
:1002B00003BC02F08EFE0000094880470948004751
:1002C000FEE7FEE7FEE7FEE7FEE7FEE7FEE7FEE706
:1002D000FEE7FEE704480549054A064B7047000063
:1002E0003125000831010008181C002018220020C8
:1002F000181E0020181E0020704700001CB50C4678
:10030000064B7B4469460090204600F040FA0446C4
:100310000020694600F04EFA20461CBDAF040000E4
:100320000FB4044910B503AA029800F05FFA10BC9C
:100330005DF814FB980F00200FB41CB5084B06AAFB
:100340007B4469460090059800F021FA044600209D
:10035000694600F02FFA20461CBC5DF814FB000033
:100360007104000070B50C460546012A05D02878B6
:10037000800600D5EA69002302E0012305E05B1C4A
:10038000934202D2E05C0028F9D1A869E618C01AAD
:10039000A861286A18442862284600F04CF904E055
:1003A000D5E9012114F8010B9047B442F8D328464F
:1003B00000F057F970BD00002DE9F0410646002419
:1003C00010687529314616A510D000F05BF9002899
:1003D00002DA404213A507E031688A0701D512A569
:1003E00002E0490704D511A5012401E000F053F90A
:1003F00000210A2206F1240709E0B0FBF2FCB0FB61
:10040000F2F302FB1C00303078541846491C0028D7
:10041000F3D123462A463046BDE8F04100F044B906
:10042000000000002D0000002B0000002000000054
:100430002DE9F05F894604464FF0000ADFF874B1F9
:10044000FB44C0F820A02046E1688847002874D00B
:10045000252806D0D4E901219047206A401C20625B
:10046000F1E700265F462046E168884720280546D8
:1004700007DB312D05D2781910F8200C08B106439E
:10048000F1E7B00701D526F00406C4F81CA0002748
:10049000C4F818A02A2D09D0284602F093FD38B3DD
:1004A00004EB8708303DC8F8185019E059F8041BD0
:1004B000204604EB87029161E1688847012F0546D9
:1004C00018D1E069002820DA26F020061DE0D8F8CF
:1004D000180000EB800005EB40003038C8F8180029
:1004E0002046E1688847054602F06CFD0028EED101
:1004F000012F0AD02E2D08D12046E16888477F1CA5
:100500000546022F46F02006C4DBA069002803DA66
:10051000404246F00106A061F00701D026F0100627
:100520006C2D0BD0682D09D04C2D39D06A2D35D0CB
:10053000742D35D07A2D33D016E038E0E1682F469F
:1005400020468847B842054609D16C2F26D04FF483
:100550008060E168064320468847054604E06C2F2A
:100560001AD04FF4807006430DB3A5F1410019284D
:1005700002D8203546F400664A46294620462660C1
:100580004E46FFF72FFE80B101280BD0F61D26F056
:10059000070000F1080956E74020E4E78020D8E78B
:1005A0000020D6E706F104094DE7284652E7206A05
:1005B000BDE8F09FC8380000401ECAB210F8011F05
:1005C0008A4202D00029F9D10020704730B5054693
:1005D0000B462A4613F8014B12F8010B08B1A04252
:1005E000F8D01CB1002802D06D1CF1E7284630BDC0
:1005F00010B5431C02E010F8011B71B18107FAD15C
:100600004FF0013202C88C1A8C4314EAC211F9D09F
:10061000C01A0A0603D0C01E10BDC01A10BD0A04BD
:1006200001D0801E10BD0902FCD0401E10BD7047D5
:1006300070477047704770B5044685690068C10609
:1006400001D5302600E02026C00707D070BDD4E9D0
:10065000012130469047206A401C20626D1EF6D56D
:1006600070BD70B5044685690078C00707D170BDBC
:10067000D4E9012120209047206A401C20626D1E91
:10068000F6D570BD09684A0501D540B27047C90565
:10069000FCD500B2704709684A0501D5C0B2704761
:1006A000C905FCD580B270472DE9F0470D46994643
:1006B0009246044600F124080168880604D5E069E2
:1006C00021F01001216000E00120A84201DD471B5C
:1006D00000E00027A1697A1902EB0900081AA0615D
:1006E0002078C00602D42046FFF7A5FF002608E0C8
:1006F000D4E901211AF806009047206A401C761CB4
:1007000020624E45F4DB2078C0060AD52046FFF76C
:1007100092FF06E0D4E9012130209047206A401C76
:100720002062381EA7F10107F4DC07E0D4E90121BB
:1007300018F805009047206A401C2062281EA5F189
:100740000105F3DC2046FFF78CFF2078000602D578
:100750000220BDE8F0870120FBE711680268006A0B
:10076000530501D508700AE0D30501D5088006E0DD
:10077000130603D5C217C1E9000200E0086001209A
:100780007047000001694A1C02610878704700B593
:100790008FB0CDE901310021059105497944CDE9BA
:1007A000031011466846FFF743FE0FB000BD00007E
:1007B000E5FFFFFF0A6802F8010B0A60704710B5F9
:1007C000436913B1AFF3008001E0FFF7CBFD0120D7
:1007D00010BD127800F124010A7000224A70012233
:1007E000EDE711684FF0FF32E9E70000074B70B505
:1007F0000D467B44FFF7CBFF0446284600F090FBF4
:1008000010B14FF0FF3070BD204670BD0B2B0000C3
:100810002DE9FF5F15468A460446DFF8AC80F844B0
:100820000027D8E900103E46CDE9001010E03AF864
:1008300016106A4602A800F077FB411C07D0217809
:10084000890603D5E269391891420DD80744761C10
:100850002078800602D5E069B84205DDAE42E6DBCD
:100860003AF816000028E2D1A069C01BA06120461A
:10087000FFF7E1FED8E90010CDE90010002017E0F5
:100880003AF818106A4602A800F04EFBB0F1FF3F9C
:1008900081460BD000250DF1080B05E0D4E90121BC
:1008A0001BF8050090476D1C4D45F7D308F101007A
:1008B000B0428046E4DB206A384420622046FFF7DD
:1008C000D0FEBDE8FF9F0000FE3400002DE9F0419E
:1008D0008046D21D22F007020025D2E90002F52948
:1008E00015A614D0011E72F1000106DA0023D0EB28
:1008F000030063EB020211A608E0D8F800108B0792
:1009000001D50FA602E0490701D50EA60125114623
:10091000002408F1240704E000F098F830323A553A
:10092000641C50EA0102F7D12B463246214640466C
:10093000BDE8F041FFF7B8BE000000002D00000048
:100940002B0000002000000030B4002100F124043E
:1009500008E002F00705D208303542EA4372DB08AE
:100960006554491C52EA0305F3D10468002310A220
:10097000250707D5A40600D421B1C46901230DA21F
:10098000641EC46130BCFFF78FBE10B5044621461B
:100990001068FFF780FE02462046BDE810400023A5
:1009A000D2E7D21D22F00701D1E90023CCE70000F5
:1009B0000000000030000000F0B40D460188090579
:1009C00002D5214C7C4402E01F4C7C440E340021B3
:1009D00000F1240608E002F00F071209E75D42EA81
:1009E00003721B097754491C52EA0307F3D10278BA
:1009F0000023120704D5702D06D009B1022311344B
:100A00002246F0BCFFF750BE01231034F8E770B562
:100A100004460D4621461068FFF73DFE0246294672
:100A20002046BDE870400023C6E7D21D22F0070330
:100A3000D3E90023C0E70368126843F02003036092
:100A40000823C3610023B7E76033000030B5B0F17D
:100A50000A024FEA900E71F100034EEA817EB0EB7C
:100A60000E0061EB91014FEA101E4EEA017E10EB81
:100A70000E0041EB11114FEA102E4EEA016E10EB01
:100A80000E0041EB11214FEA104E4EEA014E10EBE1
:100A90000E0041EB1141401841F100014FEAD00036
:100AA00040EA41704FEAD10110EB80054FEA810422
:100AB00044EA907444EB01046D1944EB0404521BA6
:100AC000A3414FF0000348BF0A3200D530BD401C9F
:100AD00041F1000130BD70472DE9FF4F0C461E4625
:100AE0004FF0FF378BB0D2E90001DDF860800A904B
:100AF0008A46C1F30A5505B93D46002108464FF024
:100B00000000BAF1000F00F4400005DA00EB8000AD
:100B10004FF4400101EA50004FEA9059B9F1010F3A
:100B200000DDB9460A9850EA4A000ED044F610504B
:100B3000A5F2FF3545432F14B8F1000F1ED07542C2
:100B4000291E1EDDC9F100021CE0B8F1010F4FF0B3
:100B5000000001D0302103E0F24305E02154401CA5
:100B6000B042FBDB30460022002121540B99C1F832
:100B70000880C1E900200FB0BDE8F08FBD1B6D1CDF
:100B8000DEE74A4600DA694206A800F05FFA06ABE3
:100B900093E8070003AB83E8070050460A9900F08A
:100BA00015FB8DE80700A0F500501F380090039852
:100BB000002D0ADD42F21F014A460844002303A922
:100BC0000390684600F07EFD09E0A0F500504A461B
:100BD0001F38002303A90390684600F088FD8DE8C4
:100BE00007000004000C03D04FF0FF30410800E084
:100BF0001046B8F1000F03D00022009215461EE007
:100C0000751E05D4FFF722FF303262556D1EF9D5EF
:100C1000B3460122084302D000227F1C04E0207862
:100C2000302801D100227F1E002A099784D01DE0C0
:100C3000112D07DAFFF70AFF303262556D1C50EABA
:100C40000102F5D1084302D00098C8B10EE000219E
:100C5000681E05E0235C625C63542254401E491CFC
:100C60008142F7DBAB46A81B401E0990002004F828
:100C70000B000B98099AC0F80880C0E9002B7AE7AE
:100C800011264FF0000857E72DE9F04F884604463B
:100C9000D21D22F0070191B0D1E90001CDE90A018E
:100CA00002F07CF902460B98C00F01D02D2007E01E
:100CB0002068810701D52B2002E0202101EAC00035
:100CC000032A099001D0072A05DB03464146204646
:100CD00000F07CF90BE12078800601D5E06900E0A6
:100CE0000620B8F1650F814606D0B8F1660F18D01E
:100CF000B8F1670F70D131E00020B9F1110F009009
:100D000001DB112301E009F101030AAA01A90CA8E2
:100D1000FFF7E2FEDDE90C70002609F101058346CC
:100D200047E001204B4600904FF000470AAA01A976
:100D30000CA8FFF7D1FEDDE90DB00C995D46002649
:100D400010B909F101000D18B9EB050003D4C0F189
:100D5000FF3609F10105A5EB09002BE0B9F1010F00
:100D600001DA4FF001090020B9F1110F0090484657
:100D700001DD112300E003460AAA01A90CA8FFF730
:100D8000ABFEDDE90C704D46002683462078000757
:100D90000AD4AB4500DA5D4601A8012D04DD4119F6
:100DA00011F8011C302907D04F4502DA17F1040F62
:100DB00004DA012082460FE06D1EEEE7002F02DC10
:100DC000ED1B3E4403E0781CA84200DD7D1CB81BEF
:100DD00000F1010A4FF000472078000703D4AA452C
:100DE00001DB4FF0FF3A0021B7F1004F0DF143084E
:100DF0008DF8431024D002202B23002F01DA7F42EC
:100E00002D230A21021EA0F1010000DC5FB197FB37
:100E1000F1FC97FBF1F201FB1C7C17460CF1300C46
:100E200008F801CDEEE7A8F101000370218809055B
:100E300001D5452100E06521A0F1010800F8011C61
:100E400009980FA9A1EB0807FF1D00B10120411966
:100E500001EBEA70A1693844081A401EA0612078AD
:100E6000C00602D42046FFF7E6FB099828B1D4E972
:100E700001219047206A401C20622078C00622D5BC
:100E80002046FFF7D8FB1EE0002E04DBB34502DD51
:100E900001A8805D00E03020D4E901219047206A5C
:100EA000401C2062761CAAF101005FEA000A0AD108
:100EB00000F088F8C0680168405CD4E901219047DF
:100EC000206A401C2062281EA5F10105DCDC07E039
:100ED000D4E9012118F8010B9047206A401C2062D8
:100EE000381EA7F10107F3DC2046FFF7BAFB032009
:100EF00011B041E610B5436913B1AFF3008001E0D2
:100F0000FFF786FC012010BD128800F124018284C5
:100F10000022C2840122EDE711684FF0FF32E9E7B9
:100F2000007B00F08000704770B516460C46054601
:100F300000F040F8036893F80101012806D0FF2C67
:100F40000FD8185D68B101202C7070BDD3F807016F
:100F50003246214603F2071303442846BDE8704099
:100F600018474FF0FF3070BD754600F0EBF8AE4605
:100F700005006946534620F00700854618B020B5A5
:100F8000FFF7A8F9BDE820404FF000064FF000073A
:100F90004FF000084FF0000B21F00701AC46ACE821
:100FA000C009ACE8C009ACE8C009ACE8C0098D468E
:100FB0007047000010B500F005F8001D10BD00BF1F
:100FC0003D29000000487047D81B00202DE9F04162
:100FD0001F46044603260168072A01F4006004DB6B
:100FE00008B116A505E016A503E008B115A500E0B7
:100FF00015A521F010002060A069C01EA0610FB1EE
:10100000401EA0612046FFF716FB4FB1D4E9012135
:1010100038469047206A401C2062C01C206206E0CF
:10102000206AFAE7D4E9012115F8010B9047761EF2
:10103000F8D22046FFF715FBBDE8F0814E414E0087
:101040006E616E00494E4600696E66002DE9F047FC
:10105000814616468AB0354878440DC88DE80D00A3
:1010600032487844801C03AC0DC884E80D0041F67A
:101070009B300844372190FBF1F290FBF1F5A5F18C
:10108000800501FB12041B3C02D56442012000E0F4
:101090000020DFF898A080460027FA44AAF1BE0A93
:1010A0000EE0E0070AD03246684607EB470101230D
:1010B0000AEB810100F01BFB8DE8070064107F1C28
:1010C000002CEED1194F7F44AE3F19E0E80715D050
:1010D00007EB04100DF1180A90E80E008AE80E00E4
:1010E000C068F04201D1981908903246012306A940
:1010F00003A800F0FCFA03AB83E807006D10641C42
:10110000002DE3D14FF0010332466946B8F1000FDC
:1011100003A802D000F0D6FA01E000F0E8FAC9E92D
:101120000001C9F808200AB0BDE8F087702D000062
:1011300010B50446AFF300802046BDE81040FFF72D
:10114000B4B8000000487047B81B00204FF0013CC5
:1011500050F8042B51F8043B9A4221D1A2EB0C0326
:10116000934313EACC1317D150F8042B51F8043BE6
:101170009A4215D1A2EB0C03934313EACC130BD183
:1011800050F8042B51F8043B9A4209D1A2EB0C030E
:10119000934313EACC13DBD04FF00000704700BF3D
:1011A000D01A01BAB1FA81F101F0180122FA01F066
:1011B000CB40C1F12001DBB2C0B2C01A2CFA01F35E
:1011C000D11A914311EAC311E6D170475FEA400C8E
:1011D00008BF91F0000F4FEA8C234FEAC12243EA87
:1011E00051514FEA1C5018BF00F5F0404FEA300053
:1011F00018BF41F000415FEA6C5C00F02980BCF14F
:10120000FF3F08BF40F080407047130C06BF120438
:101210004FF0100C4FF0000C130E04BF12020CF133
:10122000080C130F04BF12010CF1040C930F04BF40
:1012300092000CF1020CD30F04BF52000CF1010C10
:1012400011464FF00002A0F11F00A0EB0C00704708
:1012500011F0004F08BF704731F000413FF4D5AFA7
:101260000B0C06BF09044FF0100C4FF0000C0B0ED6
:1012700004BF09020CF1080C0B0F04BF09010CF1AB
:10128000040C8B0F04BF89000CF1020CCB0F04BFC0
:1012900049000CF1010CCCF12003A0EB0C0022FA68
:1012A00003F302FA0CF241EA030100F10100704776
:1012B00020F07F4C80EA030023F07F47ACEB07036C
:1012C00003F57C5300F0004003F1FF032DE9804952
:1012D0004FEA154B09B44FEA144325EA0B4E24EAB2
:1012E00003480FF2042606EB132749083E785FEA0D
:1012F000320203FB0667C7F5000707FB06F64FEA55
:1013000054374FEAD64606F1020607FB066CCCF1CD
:10131000005C4FEA1C472CEA074C07FB06F40CFB69
:1013200006F504EB15464FEA961634BF00204FF041
:1013300000404FEAD13706FB07FC4FEA1C4C0CFB80
:101340000BF7D21B03FB0CF761EB07010CFB0EF74D
:10135000B0EB074072EB17420CFB08F734BFA2EB6F
:101360000742B2EB074261EB17414FEA0C444FEAE8
:10137000910706FB07FC4FEA1C4C0CFB0BF7B0EB8C
:10138000C74072EB573203FB0CF734BFA2EBC742E6
:10139000B2EBC74261EB57310CFB0EF7B0EBC70065
:1013A00072EB57720CFB08F734BFA2EBC702B2EB2B
:1013B000C70261EB5771039F4FEA816141EA9211C5
:1013C00004EBCC044FEAD1374FEA826206FB07FCFC
:1013D00042EA90124FEA80604FEA1C4C0CFB0BF77C
:1013E000D21B03FB0CF761EB07010CFB0EF7B0EB14
:1013F000074072EB17420CFB08F734BFA2EB074221
:10140000B2EB074261EB17414FEA8C554FEA910767
:1014100004EB9C2406FB07FC4FEA1C4C0CFB0BF76F
:10142000B0EBC74072EB573203FB0CF734BFA2EBB3
:10143000C742B2EBC74261EB57310CFB0EF7B0EB82
:10144000C70072EB57720CFB08F734BFA2EBC70260
:10145000B2EBC70261EB577115EB4C254FEA816186
:1014600041EA92114FEA82624FEAD13742EA901282
:1014700006FB07FC44F100044FEA80604FEA1C4C75
:101480000CFB0BF7D21B03FB0CF761EB07010CFB0A
:101490000EF7B0EB074072EB17420CFB08F734BFB6
:1014A000A2EB0742B2EB074261EB174115EB1C15AB
:1014B0004FEA813141EA92414FEA823242EA904258
:1014C0004FEA80304FEA0C7644F1000448EA0343C7
:1014D0004EEA0B484FF0000EB2EB080C71EB03071D
:1014E00024BF624639464EEB0E0E4FF0000B00183B
:1014F000524149414BEB0B0BB2EB080C71EB03076C
:101500007BF1000B24BF624639464EEB0E0E4FF0C6
:10151000000B0018524149414BEB0B0BB2EB080C8E
:1015200071EB03077BF1000B24BF624639464EEB9B
:101530000E0E51EA020718BF46F0010616EB0E76B2
:1015400055F1000254F1000103D5BDE88901BDE861
:101550000088BDE88901BDE80048B619524141EB59
:101560000101A3F10103704780807F7E7D7C7B7A3F
:101570007978777676757473727171706F6E6E6D3F
:101580006C6C6B6A6A6968686766666564646363E5
:1015900062616160605F5F5E5E5D5D5C5C5B5B5A6B
:1015A0005A595958585757565655555554545353D8
:1015B00052525251515050504F4F4F4E4E4D4D4D33
:1015C0004C4C4C4B4B4B4A4A4A494949484848477E
:1015D00047474746464645454544444444434343BC
:1015E0004342424242414141002B9C4630D4770065
:1015F0002BD01CB54FEA370703B44FF010004FF063
:101600001001BAF1000F06D0BCF1000FDCBF40F0B2
:10161000080040F008014FF000000FBCBDE810408A
:101620000BF1010BBBF1010F08BF5FEA170722BFE7
:1016300012F1010211F101014FF0004143F10003E9
:1016400000F0004043EA00007047F9D35708D0E7A4
:1016500046EA064613F1400F4FEA16461FDD13F126
:10166000200FDFBF16430A46002120335B42BED065
:10167000C3F1200746EA064602FA07F74FEA164684
:1016800046EA0706C3F1200722FA03F201FA07F738
:1016900021FA03F14FF0000342EA0702A7E746EA06
:1016A000020646EA06464FEA164646EA0106BCBF6F
:1016B00046EA0646360C4FF000034FF000024FF0AA
:1016C000000194E72DE9804C9A46934670B491E866
:1016D000380007C831EA400C48BF34EA430C03D550
:1016E000FFF7E6FDFFF780FFF0BCBDE8008C2DE9B9
:1016F000804C9A46934670B491E8380007C810F0C1
:10170000804F08BF13F0804F03D100F005F8FFF7BA
:101710006BFFF0BCBDE8008C20F07F4780EA03003F
:1017200023F07F4C07EB0C03A3F57C5300F0004043
:10173000A3F1FE0392F0000F00F0B38095F0000FCC
:1017400000F077802DE901494FEA11404FEA144635
:1017500021EA004800FB06FC24EA064708FB06F6DF
:1017600007FB08F800FB07F718EB06484CEB164C94
:101770004FEA124B18EB07484FEA15464CEB17405F
:1017800022EA0B4E0BFB06FC25EA06470EFB06F68B
:1017900007FB0EFE0BFB07F71EEB064E4CEB164C41
:1017A0004FF000061EEB074E4CEB174B18EB0B08E7
:1017B00040F1000018EB0E0B58EB000840F1000060
:1017C0008F1A4FF000013CBFC943661B14BFB5EB35
:1017D000040C00213CBFC943F61B4FEA17444EEAF4
:1017E0008E0E27EA04454FEA1C4704FB07622CEAE9
:1017F000074C05FB07F70CFB05F604FB0CFC16EB8E
:10180000074642EB174216EB0C4642EB1C421BEB21
:10181000060658EB0202414146EA9E0601D5BDE8A4
:101820000189B619524141EB0101A3F10103BDE861
:1018300001894FEA14454FEA114724EA054621EA97
:10184000074C05FB07F406FB07F70CFB06F105FB4D
:101850000CFC11EB074144EB17444FEA124711EB24
:101860000C4144EB1C4422EA074C05FB07F206FB43
:1018700007F70CFB06F605FB0CFC16EB074642EBE4
:10188000174216EB0C4642EB1C456A1854F1000156
:1018900048BF7047B619524141EB0101A3F1010362
:1018A000704795F0000F37D04FEA11424FEA1447C6
:1018B00021EA024624EA074C02FB07F106FB07F780
:1018C0000CFB06F402FB0CFC14EB074441EB174144
:1018D0004FEA154714EB0C4441EB1C4125EA074C39
:1018E00002FB07F506FB07F70CFB06F602FB0CFCF8
:1018F00016EB074645EB174516EB0C4645EB1C422D
:10190000121951F1000148BF7047B619524141EB1D
:101910000101A3F1010370474FEA14454FEA114753
:1019200024EA054621EA074C05FB07F106FB07F709
:101930000CFB06F24FF0000605FB0CFC12EB074215
:1019400041EB174112EB0C4251EB1C4148BF704771
:10195000921841EB0101A3F10103704708B5012181
:10196000082000F0CFFC4FF48070ADF8000010208C
:101970008DF8030003208DF802006946044800F04A
:10198000EFF84FF48071024800F07EF908BD0000C6
:10199000000C014010B500F0ABFA0A2001F03EFB4C
:1019A00009A20021084600F075FB0BA203210020CC
:1019B00000F070FB0BA20621002000F06BFB0A2058
:1019C00001F02CFB10BD0000D6C7C4DCD3EFD2F46D
:1019D000B5BCC3A4D2C70000C9E8BCC6D5DF3ABBBA
:1019E000D4000000323032322F332F323200000068
:1019F00000BFFEE77047000010B50A2001F040FB71
:101A0000402000F023F8A8B100210B4800F05CFE54
:101A10000121094800F02FFE00BF4021074800F0D7
:101A20002AF90028F9D10021034800F024FE4020C3
:101A300000F006F810BD000000040040000C01405A
:101A4000014908607047000014040140014600206D
:101A50000022074B1B6803EA0102054B14331B6885
:101A60000B4013B10AB1012000E0002070470000D4
:101A700000040140002123498279002A3AD00A4615
:101A8000126803689A430B461A600A1D12680368BD
:101A90009A430B1D1A60027911440A6803681A43BD
:101AA0000A60184A0832126803689A43154B0833D3
:101AB0001A601A1D126803689A43124B0C331A609D
:101AC0004279102A0ED11A1F126803681A430D4B6F
:101AD00008331A601A1D126803681A43094B0C3345
:101AE0001A600DE00749427911440A6803681A43F5
:101AF0000A6005E0027911440A6803689A430A60A3
:101B00007047000000040140044900E0521C11F835
:101B1000013B002BFAD1500870470000900A0020CA
:101B200030B500228B071C0F0F2303FA04F20B4B76
:101B30008C1053F824309343084C8D1044F8253012
:101B400023468C1053F824308C07240F00FA04F439
:101B50002343024C8D1044F8253030BD080001406D
:101B60002DE9F04102460025002600200023002434
:101B7000002791F803C00CF00F0591F803C00CF09A
:101B8000100CBCF1000F03D091F802C04CEA05051F
:101B900091F800C0BCF1000F31D0146800202BE098
:101BA0004FF0010C0CFA00F3B1F800C00CEA030688
:101BB0009E4220D183004FF00F0C0CFA03F7BC4378
:101BC00005FA03FC4CEA040491F803C0BCF1280FA9
:101BD00006D14FF0010C0CFA00FCC2F814C00AE068
:101BE00091F803C0BCF1480F05D14FF0010C0CFA7D
:101BF00000FCC2F810C0401C0828D1D31460B1F812
:101C000000C0BCF1FF0F34DD546800202EE000F16D
:101C1000080C4FF0010808FA0CF3B1F800C00CEA08
:101C200003069E4221D183004FF00F0C0CFA03F7FC
:101C3000BC4305FA03FC4CEA040491F803C0BCF170
:101C4000280F05D100F1080C08FA0CF8C2F814802E
:101C500091F803C0BCF1480F07D100F1080C4FF018
:101C6000010808FA0CF8C2F81080401C0828CED3EE
:101C70005460BDE8F0810246002093680B400BB130
:101C8000012000E00020704741617047016170470A
:101C900000BFFEE710B54FF4A06000F01FF94FF44D
:101CA000E13000F0DDFD4FF4165000F065FE4FF41A
:101CB000E13000F0D7FE01F08FF901F0C1F801F03A
:101CC0002DFB01F041FB00F0B7F800F08DF8FFF7B5
:101CD00045FE00F06BF901F0B3F841F61F4142F206
:101CE0000E7000F045FD01F07DFA322101A001F0F7
:101CF00041FA10BD426F6F74205465737400000088
:101D0000002001E0411CC8B20A28FBDB704700003C
:101D100008B50121082000F0F5FA0120ADF8000017
:101D200003208DF8020014208DF803006946064850
:101D3000FFF716FF0220ADF8000069460248FFF7E2
:101D40000FFF00F01DF808BD000C014010B5012088
:101D5000094908600949C1F88001FFF7D1FF002057
:101D600005490860FFF7CCFF00200449C1F8800155
:101D7000FFF7C6FF10BD0000848121420080214290
:101D800010B500200549086001200549C1F880010F
:101D9000FFF7B6FF01200149086010BD8481214290
:101DA0000080214210B501200C490860FFF7A8FF10
:101DB00001200B49C1F88001FFF7A2FF0221094869
:101DC000FFF759FF08B1012400E000240020034977
:101DD000091F0860FFF794FF204610BD848121424F
:101DE00000802142000C014008B50121442000F090
:101DF00089FA0220ADF8000010208DF803000320BE
:101E00008DF8020069460A48FFF7AAFE0221084839
:101E1000FFF73CFF4FF48040ADF8000069460548ED
:101E2000FFF79EFE4FF480410248FFF72FFF08BDE9
:101E3000000801400018014008B50121042000F00D
:101E400061FA1020ADF8000048208DF803006946C3
:101E50000348FFF785FE10210148FFF715FF08BD75
:101E60000008014000BFFEE77047000070B5002188
:101E700000230F22C47804B3154C246804F4E064F2
:101E8000C4F5E064210AC1F10403CA40447804FAAD
:101E900003F184781440214309010E4C0678A155C2
:101EA000047804F01F050124AC4005786D11AD00E5
:101EB00005F1E025C5F8004109E0047804F01F05AC
:101EC0000124AC40044D0678761145F8264070BDDB
:101ED0000CED00E000E400E080E100E00249014395
:101EE000024A1160704700000000FA050CED00E0A6
:101EF00010B5002000F03CF810BD2DE9F05F06465B
:101F00000F4690461C46DDF828A04FF0000BE11765
:101F100004EB5171C910A4EBC10131B92046E1179E
:101F200004EB5171C1F3C70506E02046E11704EB4D
:101F30005171C910491CCDB23D4615E029463046C5
:101F400000F090F8B1460BE059464A1C1FFA82FB9C
:101F50001AF8010001F00CF809F1010000F0FF0986
:101F6000C145F1DB681CC5B2A542E7DBBDE8F09FC7
:101F700070B50646002415E004F1B001C8B200F0C7
:101F8000E1FF002000F0DEFF102000F0DBFF002565
:101F900004E0304600F0ECFF681CC5B2822DF8DB8F
:101FA000601CC4B2082CE7DB70BD000010B5FFF761
:101FB000ABFD2B490860FFF7ABFEAE2000F0C2FF7F
:101FC000002000F0BFFF102000F0BCFF402000F018
:101FD000B9FFB02000F0B6FF812000F0B3FFFF2072
:101FE00000F0B0FFA12000F0ADFFA62000F0AAFF96
:101FF000A82000F0A7FF3F2000F0A4FFC82000F0B9
:10200000A1FFD32000F09EFF002000F09BFFD52011
:1020100000F098FF802000F095FFD82000F092FF9C
:10202000052000F08FFFD92000F08CFFF12000F098
:1020300089FFDA2000F086FF122000F083FFDB200A
:1020400000F080FF302000F07DFF8D2000F07AFF4F
:10205000142000F077FFAF2000F074FF10BD0000E7
:102060007C0F002070B504460D4605F1B001C8B2E2
:1020700000F068FFA11CC1F3031141F0100000F053
:1020800061FFA11C01F00F0141F0010000F05AFFB7
:1020900070BD00002DE9F04707468846164600252A
:1020A00080E03078A02843DD00253AE0702F04DD81
:1020B000002708F1020000F0FF0830783C4911F8D1
:1020C000151088422CD17078012101EB4501384A66
:1020D000515C884224D141463846FFF7C3FF0024B3
:1020E00006E004EB4511334A505C00F041FF641CEC
:1020F000102CF6D308F10100C1B23846FFF7B2FF49
:10210000002407E004EB451110312A4A505C00F02E
:102110002FFF641C102CF5D307F11000C7B204E0A8
:102120006D1C254800688542C0D300BFB61C39E04D
:102130007A2F04DD002708F1020000F0FF08317853
:102140001E48FEF739FA8146B9F1000F29D0414601
:102150003846FFF787FF002409E099F8001020397E
:1021600004EB0111164A505C00F002FF641C082CBD
:10217000F3D308F10100C1B23846FFF773FF002422
:102180000AE099F80010203904EB011108310C4ADB
:10219000505C00F0EDFE641C082CF2D307F108003F
:1021A000C7B2761C307800287FF47BAFBDE8F0879B
:1021B000900A0020F00500207C0F0020DB0A0020A0
:1021C000000000202DE9F04107460E46904600250C
:1021D0000024A8F12000C5B2812F02DD0027B01C29
:1021E000C6B231463846FFF73DFF002407E004EB56
:1021F00005110E4A505C00F0BBFE601CC4B2082CF6
:10220000F5DB701CC1B23846FFF72CFF002408E054
:1022100004EB05110831054A505C00F0A9FE601C72
:10222000C4B2082CF4DBBDE8F081000000000020FF
:102230002DE9F05F0546894690461E46DDF828A048
:102240004FF0000B002437E0301B401EC1B20A20C3
:1022500001F084FAB8FBF0F00A21B0FBF1F201FBC7
:102260001207BBF1000F1AD1701EA04217DDA7B9EB
:10227000BAF1000F08D0082101FB0451C8B2302286
:102280004946FFF79FFF07E0082101FB0451C8B250
:1022900020224946FFF796FF0CE04FF0010B07F1B3
:1022A0003001CAB2082101FB0451C8B24946FFF708
:1022B00089FF00BF601CC4B2B442C5DBBDE8F09F1B
:1022C0007047000029B1064AD2690243044BDA6123
:1022D00004E0034AD2698243014BDA61704700008F
:1022E0000010024029B1064A12690243044B1A61E8
:1022F00004E0034A12698243014B1A6170470000EF
:102300000010024029B1064A92690243044B9A61C7
:1023100004E0034A92698243014B9A6170470000CE
:102320000010024029B1064AD2680243044BDA6029
:1023300004E0034AD2688243014BDA607047000030
:102340000010024030B500210022002400232D4D52
:102350006D6805F00C0121B1042905D0082923D1AD
:1023600005E0294D056022E0274D05601FE0254D61
:102370006D6805F47012234D6D6805F480340225F4
:1023800005EB92421CB9214D554305600BE01D4DF4
:102390006D6805F400351DB11C4D5543056002E024
:1023A000194D5543056002E0174D056000BF00BFA1
:1023B000144D6D6805F0F0010909154D6B5C056859
:1023C000DD4045600F4D6D6805F4E061090A104D70
:1023D0006B5C4568DD4085600A4D6D6805F46051B1
:1023E000C90A0B4D6B5C4568DD40C560054D6D68E5
:1023F00005F44041890B074D6B5CC568B5FBF3F5EF
:10240000056130BD0010024000127A0000093D0055
:10241000800F0020900F0020704710B500F002F8E8
:1024200010BD00000CB500200190009033480068FA
:1024300040F480303149086000BF3048006800F443
:10244000003000900198401C0190009818B9019844
:10245000B0F5A06FF1D12948006800F4003010B148
:102460000120009001E0002000900098012843D155
:102470002348006840F010002149086008460068C1
:1024800020F0070008600846006840F0020008607D
:102490001A4840681949486008464068486008463C
:1024A000406840F4806048600846406820F47C1032
:1024B00048600846406840F4E810486008460068F4
:1024C00040F08070086000BF0C48006800F00070A9
:1024D0000028F9D00948406820F003000749486007
:1024E0000846406840F00200486000BF034840686A
:1024F00000F00C000828F9D10CBD000000100240CB
:1025000000200240042808D14FF0E021096941F081
:1025100004014FF0E022116107E04FF0E02109696A
:1025200021F004014FF0E022116170477047000074
:1025300010B51348006840F00100114908600846D2
:102540004068104908400E494860084600680E4936
:1025500008400B4908600846006820F480200860A5
:102560000846406820F4FE0048604FF41F00886071
:10257000FFF753FF4FF000600449086010BD0000F2
:10258000001002400000FFF8FFFFF6FE08ED00E03B
:1025900010B50121880700F07DF870B10748008868
:1025A00040F40040054908800121880700F060F8E8
:1025B00000214FF0804000F05EF810BD9E0F00201B
:1025C00010B50121044800F065F818B10121024856
:1025D00000F04EF810BD00000004004010B50121CD
:1025E000094800F057F868B10848008840F40040F6
:1025F000064908800121044800F03AF80021024809
:1026000000F039F810BD000000140040A00F0020B9
:102610007FB505460C4601212020FFF753FEADF89B
:102620000450ADF800400020ADF80600ADF80200FF
:1026300069460E4800F04AF8012211460B4800F0A6
:102640003AF80121094800F016F837208DF80C00FF
:1026500000208DF80D0002208DF80E0001208DF86D
:102660000F0003A8FFF702FC7FBD0000001400402C
:10267000CA430282704721B1028842F001020280FF
:1026800004E002884FF6FE731A400280704701464C
:10269000888C704730B50246002000230024158A3C
:1026A00005EA0103958905EA010413B10CB1012083
:1026B00000E0002030BD1AB183890B43838102E022
:1026C00083898B438381704781847047002202880D
:1026D0001D4B98420ED01D4B98420BD0B0F1804F4D
:1026E00008D01B4B984205D01A4B984202D01A4B87
:1026F000984204D14FF68F731A404B881A43174BF8
:10270000984207D0164B984204D04FF6FF431A4028
:10271000CB881A4302808B8883850B8803850A4BFC
:1027200098420BD0094B984208D00E4B984205D0E6
:102730000D4B984202D00D4B984201D10B7A038683
:102740000123838270470000002C014000340140C7
:102750000004004000080040000C00400010004051
:102760000014004000400140004401400048014086
:102770007FB505460C4601210220FFF7A3FD00208E
:10278000ADF80600ADF80850ADF80440ADF80A0009
:1027900001A91048FFF79AFF1D208DF800000120C5
:1027A0008DF8030002208DF8010000208DF8020052
:1027B0006846FFF75BFB012211460648FFF77BFFE7
:1027C000012240210348FFF776FF01210148FFF76E
:1027D00052FF7FBD0004004010B540F225511D4856
:1027E00000F01FFA10B31B4800F0D6FAC4B21A4822
:1027F000008800F40040C8B91748008800F4804001
:1028000060B10A2C03D000201349088020E0124850
:10281000008840F400401049088019E00D2C06D1D2
:102820000D48008840F480400B49088010E00A48B9
:102830000088C0F30D0009490C5407480088401C6B
:102840000549088008460088C72801DD0020088067
:1028500010BD0000003801409C0F0020C00F002078
:1028600010B586B00446012144F20400FFF74AFD8A
:102870004FF40070ADF8140003208DF816001820F6
:102880008DF8170005A91C48FFF76AF94FF480601E
:10289000ADF8140004208DF8170005A91648FFF7BD
:1028A0005FF925208DF8000003208DF801008DF8D8
:1028B000020001208DF803006846FFF7D7FA019463
:1028C0000020ADF80800ADF80A00ADF80C00ADF836
:1028D00010000C20ADF80E0001A9084800F0F0F936
:1028E000012240F22551054800F0C5F901210348B5
:1028F00000F02FF906B010BD00080140003801407B
:1029000010B540F22551194800F08BF928B340F278
:102910002551164800F00EF9144800F03DFAC4B2F3
:102920001348008800F40040B8B911480088B0F599
:10293000487F13DA00214FF08040FFF7C5FE0C48B6
:10294000008818B901218807FFF795FE0849088813
:10295000411C074A118007490C5405E004480088CF
:1029600040F400400249088010BD000000440040CF
:102970009E0F00208810002010B586B0044601216B
:102980000420FFF7BFFC01214804FFF79BFC042053
:10299000ADF8140018208DF8170003208DF81600EC
:1029A00005A91248FFF7DCF80820ADF81400042050
:1029B0008DF8170005A90D48FFF7D2F801940C20F7
:1029C000ADF80E000020ADF80C00ADF80A00ADF82F
:1029D0001000ADF8080001A9054800F071F90121C7
:1029E000034800F0B6F806B010BD00000008014032
:1029F0000044004010B540F22551164800F011F98E
:102A0000F8B1144800F0C8F9C4B21348008800F4C3
:102A10000040B0B910480088B0F5167F12DA0021E6
:102A20000E48FFF751FE0C48008818B901210B48E9
:102A3000FFF721FE08490888411C074A1180084910
:102A40000C5405E00448008840F400400249088026
:102A500010BD000000480040A00F002000140040FE
:102A6000C816002010B586B0044601210820FFF7E3
:102A700049FC01218804FFF725FC2A4800F076F87C
:102A80004FF48060ADF8100003208DF8120018207C
:102A90008DF8130004A92448FFF762F84FF4006092
:102AA000ADF8100004208DF8130004A91E48FFF7AC
:102AB00057F800940020ADF80400ADF80600ADF81A
:102AC0000800ADF80C000C20ADF80A006946154866
:102AD00000F0F6F80121134800F03BF8012240F223
:102AE0002551104800F0C7F827208DF81400022067
:102AF0008DF8150003208DF8160001208DF81700C1
:102B000005A8FFF7B3F941F61F4140F2E730FFF7A0
:102B10007FFD00200549088000210548FFF7ABFD37
:102B200006B010BD00480040000C0140A00F00207E
:102B30000014004010B50022002340F66A14A142A0
:102B400000D100BF0A1201249440A3B2DC430480E8
:102B500010BD21B1828942F40052828104E0828951
:102B60004DF6FF731A4082817047000010B504468D
:102B70002048844209D101218803FFF7D3FB0021BB
:102B80004FF48040FFF7CEFB32E01B48844209D16E
:102B900001214804FFF7A6FB00214FF40030FFF7A6
:102BA000A1FB25E01548844209D101218804FFF7E3
:102BB00099FB00214FF48020FFF794FB18E01048A8
:102BC000844209D10121C804FFF78CFB00214FF496
:102BD0000020FFF787FB0BE00A48844208D101215F
:102BE0000805FFF77FFB00214FF48010FFF77AFB09
:102BF00010BD000000380140004400400048004083
:102C0000004C00400050004002460020B1F5007F1B
:102C100000D100BF13880B400BB1012000E0002061
:102C2000704770B50246002400230025002040F6BE
:102C30006A16B14200D100BFC1F3421501F01F0373
:102C4000012606FA03F3012D02D19689334006E0EE
:102C5000022D02D1168A334001E0968A33400C12CD
:102C6000012606FA04F41688344013B10CB1012091
:102C700000E0002070BDF0B50346002400260025CA
:102C8000002040F66A17B94200D100BF1846C1F3D0
:102C9000421401F01F06012707FA06F5012C01D1A5
:102CA0000C3004E0022C01D1103000E014301AB1D5
:102CB00007682F43076002E00768AF430760F0BD75
:102CC0002DE9F04786B005460E460024A24600BF17
:102CD000A1460027B08900B100BF2F462C8A4CF6D0
:102CE000FF700440F08804432C82AC894EF6F31048
:102CF0000440B08831890843718908430443AC819A
:102D0000AC8A4FF6FF400440B0890443AC8201A86E
:102D1000FFF718FB1F48874202D1DDF810A001E041
:102D2000DDF80CA0A88900F4004040B10AEBCA000D
:102D300000EB0A1031684900B0FBF1F807E00AEB3C
:102D4000CA0000EB0A1031688900B0FBF1F864207A
:102D5000B8FBF0F004012009642101FB1089A88967
:102D600000F4004040B1322000EBC900B0FBF1F0AC
:102D700000F00700044308E0322000EB0910642152
:102D8000B0FBF1F000F00F0004432C8106B0BDE869
:102D9000F08700000038014001468888C0F3080031
:102DA0007047C1F308028280704700BFFEE72DE93B
:102DB000F04705460C46260EC4F30747C4F3072820
:102DC00004F0FF0931462846FFF7EBFF00BF8021E2
:102DD0002846FFF719FF0028F9D039462846FFF7A3
:102DE000E0FF00BF80212846FFF70EFF0028F9D042
:102DF00041462846FFF7D5FF00BF80212846FFF750
:102E000003FF0028F9D049462846FFF7CAFF00BF54
:102E100080212846FFF7F8FE0028F9D0BDE8F087AA
:102E200070B504460D4629462046FFF7BAFF00BF9D
:102E300080212046FFF7E8FE0028F9D070BD000091
:102E40001FB501210920FFF75DFA8020ADF80C00C5
:102E500010208DF80F0003208DF80E0003A91748ED
:102E6000FEF77EFE4020ADF80C0028208DF80F0004
:102E700003A91248FEF774FE06210120FEF750FE5A
:102E80004020019001208DF80A0000208DF80800F4
:102E900008208DF8090001A8FEF7ECFD17208DF839
:102EA000000001208DF8030000208DF801008DF84E
:102EB00002006846FEF7DAFF1FBD0000000C01406B
:102EC00010B504460A2C0CDD80210748FEF7DEFE13
:102ED000204600F0D5F880210348FEF7D5FE0020FB
:102EE00010BD0120FCE70000000C014070B5044655
:102EF000002520E004F0800018B101200F4908608F
:102F000002E000200D490860FEF7FAFE01200B499F
:102F1000091F0860FEF7F4FE00200949C1F880018E
:102F2000072D02D10120054908606006040EFEF756
:102F3000E7FE681CC5B2082DDCDB70BD8481214230
:102F40000080214210B50446FEF700FF7820FFF70D
:102F5000CDFFFEF727FF0020FFF7C8FFFEF722FF97
:102F60002046FFF7C3FFFEF71DFFFEF709FF10BD68
:102F700010B50446FEF7EAFE7820FFF7B7FFFEF72C
:102F800011FF4020FFF7B2FFFEF70CFF2046FFF7CE
:102F9000ADFFFEF707FFFEF7F3FE10BD490050EA54
:102FA000C12018BF04204A0D18BF40F0010040F2B4
:102FB000FF72B2EB515F08BF40F00200012808BF6A
:102FC0000520704730380A2801D2012070470020C0
:102FD000704700BF7047000010B56FF00400FFF7A6
:102FE00091FA0A4800680A49B0FBF1F009490870F3
:102FF0000846007800EB4001C1EBC0104FF6FF71AE
:1030000001EAC0000449088010BD0000A40F0020A0
:1030100000127A00940F0020960F00200146114AFA
:1030200012884A434FF0E0235A6100229A611A46FF
:10303000126942F001021A6100BF4FF0E0221069EC
:1030400000F001021AB100F48032002AF5D04FF0EE
:10305000E022126922F001024FF0E0231A610022FF
:103060009A617047960F002030B50446002504E0B1
:103070004FF47A70FFF7D2FF6D1CA542F8DB30BD2C
:103080000146114A12784A434FF0E0235A61002268
:103090009A611A46126942F001021A6100BF4FF0AC
:1030A000E022106900F001021AB100F48032002A17
:1030B000F5D04FF0E022126922F001024FF0E02338
:1030C0001A6100229A617047940F002070B504467F
:1030D00000250948008800F4004058B10020064946
:1030E0000988C1F30E01054A505421461046FDF7E8
:1030F0006DFA0546284670BDA00F0020C8160020B6
:103100002DE9F04106460D461446002700201349DC
:103110000880314612A000F0B3FBE5B1DCB113E04A
:103120000A20FFF77BFF0D48008800F4004058B1EB
:103130002846FFF7CBFF20B129460BA0FDF7F0F89A
:1031400006E0002005490880601E80B2041EE7D119
:1031500000BF04B901273846BDE8F081A00F002068
:1031600025730D0A0000000061636B3A25730D0A98
:10317000000000007CB505460C466E460020134951
:103180000880294612A000F07BFBECB117E00A2072
:10319000FFF744FF0D48008800F4004078B100209C
:1031A0000A490988C1F30E010A4A505416463146AD
:1031B00009A0FDF7B5F800200449088003E0601E6F
:1031C00080B2041EE3D100BF30467CBDA00F0020BA
:1031D00025730000C816002061636B3A25730D0A41
:1031E0000000000010B532221CA11DA0FFF788FFCF
:1031F00014221EA11FA0FFF783FF4FF47A70FFF780
:103200000DFF4FF47A70FFF709FF4FF47A70FFF764
:1032100005FF4FF47A70FFF701FF00BF4FF41672FD
:1032200016A119A0FFF76CFF0028F7D114220BA1FB
:103230001DA0FFF765FF00BFC8221EA11FA0FFF75A
:103240005FFF0028F8D1C82204A126A0FFF758FF8D
:10325000322202A127A0FFF753FF10BD4F4B000001
:1032600041542B43574D4F44453D310072656164D5
:103270007900000041542B525354000057494649ED
:1032800020474F542049500041542B43574A415046
:103290003D22434952434C45222C223130303836AE
:1032A000313030220000000041542B4349504D552D
:1032B000583D3000434F4E4E4543540041542B433C
:1032C000495053544152543D22544350222C2231F0
:1032D00039322E3136382E3132302E32222C3830DF
:1032E0003830000041542B4349504D4F44453D3147
:1032F0000000000041542B43495053454E44000008
:1033000000BF054A128802F04002002AF9D0C2B27A
:10331000014B1B1D1A8070470038014008B5012180
:103320000420FEF7EFFF4020ADF8000004208DF8E8
:10333000030003208DF8020069460248FEF710FCE6
:1033400008BD00000008014008B501210420FEF777
:10335000D9FF2020ADF8000004208DF803000320E1
:103360008DF8020069460248FEF7FAFB08BD00002E
:103370000008014008B5FEF78DFCFEF70BFB32217B
:10338000BCA0FFF7F7FE3221BEA0FFF7F3FE32210B
:10339000BFA0FFF7EFFE0A20FFF740FE012000F07C
:1033A000E9F90420FFF760FE00BFBC480078FFF792
:1033B00087FD0028F9D1FEF79BFD5AE1B748007858
:1033C000FFF77EFDB648FFF762F94FF4AA7100FBE4
:1033D00001F4204600F02DFC05460022B14B00F020
:1033E000A3FA074600F0F8FBAF49087008460278D8
:1033F000AEA1B148FCF7A0FF3221AF48FFF7BAFEFB
:103400009CA200210846FEF745FEACA20621002042
:10341000FEF740FEABA206216420FEF73BFE102023
:1034200006230090A048027819463220FEF700FFDC
:103430000A20FFF7F3FDA448007801283BDC1021A7
:10344000A248FEF718FCC0B90120A1490860A148B4
:1034500002237F22002100906F20FEF74EFD3221D3
:103460009DA0FFF787FE0A20FFF7D8FD062000F099
:1034700081F90320FFF7F8FD17E000209449086068
:10348000984802237F22002100906F20FEF735FD2F
:10349000322195A0FFF76EFE0A20FFF7BFFD052041
:1034A00000F068F90620FFF7DFFD87480078401C30
:1034B000854908701AE08F480078401C8D490870D3
:1034C0000120FFF7D1FD8B4800783C2801D1012075
:1034D00000E0002087490978B42901D1012100E0EA
:1034E0000021084310B10020774908708248007815
:1034F000B4287DDC6C480078002844DD10200623C9
:1035000000906948027819463220FEF791FE0A20A1
:10351000FFF784FD6448007878490978884225DA05
:1035200077A203210020FEF7B5FD102006230090AE
:103530005D48027819463220FEF77AFE322170A0EB
:10354000FFF718FE0020724908600A20FFF766FDA9
:10355000022000F00FF90420FFF786FD01206D49DD
:10356000C1F8B8010020644908700CE06AA2032188
:103570000020FEF78FFD60480078401C5E4908700F
:103580000120FFF771FD40215048FEF774FBD8B9C8
:1035900000205F49086065A20321FEF77BFD322110
:1035A00062A0FFF7E7FD0A20FFF738FD032000F0D7
:1035B000E1F80420FFF758FD01205649C1F8B80191
:1035C00000204D49087054E020214048FEF753FB8D
:1035D000E8B900204E49086058A20321FEF75AFDC1
:1035E000322156A0FFF7C6FD0A20FFF717FD00E0C5
:1035F00024E0042000F0BEF80420FFF735FD012090
:103600004449C1F8B80100203B49087031E03A480C
:103610000078401C384908703FA203210020FEF7C3
:1036200039FD1020062300901F48027819463220E9
:10363000FEF7FEFD0120FFF717FD1AE043A203216C
:103640000020FEF727FD1020062300901648027880
:1036500019463220FEF7ECFD32213CA0FFF78AFD2F
:10366000072000F087F80420FFF7FEFC0020224925
:103670000870A3E6D6C7C4DCD3EFD2F4B5BCC3A4AC
:10368000D2C70000C9E8BCC6D5DFA3BABBD40000CE
:10369000323032322F332F3232000000BC0F002084
:1036A0000004004000006940BD0F0020BEE0C0EBF8
:1036B000A3BA256420636D00781B0020BEE0C0EB38
:1036C0003A000000636D0000B80F002000080140C0
:1036D000840121425B0F0020B0D7D6E7C4A3CABD46
:1036E000000000003B0F0020BADAD2B9C4A3CABD63
:1036F00000000000BA0F0020B90F0020BB0F00200F
:10370000D5FDC7B0B7BDD3D0D5CFB0ADCEEF00009B
:10371000B801234200002342202020202020202026
:10372000202020202020202000000000D7F3C7B058
:10373000B7BDD3D0D5CFB0ADCEEF0000D3D2C7B098
:10374000B7BDD3D0D5CFB0ADCEEF0000C7B0B7BDB9
:10375000D2BBC2B7B3A9CDA80000000010B5024685
:10376000012000E050430B1EA1F10104E1B2F9D1A8
:1037700010BD000010B504460A2C7BD2DFE804F02F
:103780007A05121F2C394653606D3B493B48FFF7C1
:103790000EFB01213948FFF743FBB4213748FFF7FF
:1037A0003FFB67E034493548FFF701FB022133480E
:1037B000FFF736FBB5213148FFF732FB5AE02E49BF
:1037C0002E48FFF7F4FA03212C48FFF729FBB62116
:1037D0002A48FFF725FB4DE027492848FFF7E7FA7D
:1037E00004212648FFF71CFBB7212448FFF718FBEC
:1037F00040E021492148FFF7DAFA05211F48FFF789
:103800000FFBB8211D48FFF70BFB33E01A491B489B
:10381000FFF7CDFA06211948FFF702FBB921174837
:10382000FFF7FEFA26E014491448FFF7C0FA072113
:103830001248FFF7F5FABA211048FFF7F1FA19E03C
:103840000D490E48FFF7B3FA08210C48FFF7E8FAD4
:10385000BB210A48FFF7E4FA0CE007490748FFF7E5
:10386000A6FA09210548FFF7DBFABC210348FFF758
:10387000D7FA00BF00BF10BD000207AA00440040F5
:103880000FB438B505A800900F48009A0499FCF7CA
:1038900035FD002000900C48FCF7AAFE85B20024FC
:1038A0000DE000BF40210948FFF7AEF90028F9D02C
:1038B0000548015D0548FFF774FA601C84B2AC420C
:1038C000EFDB38BC5DF814FB2019002000480040F5
:1038D00010B500290AD00878002807D00548784498
:1038E000FDF734FC002801D0002010BD02487844C8
:1038F00010BD0000260500001E05000010B50029BF
:103900000AD00878002807D005487844FDF71EFC47
:10391000002801D0002010BD0248784410BD0000EE
:10392000160500000E0500002DE9C04130B4DFF897
:10393000A0C23CEA111418BF3CEA131400F0EC805A
:1039400081EA03051CEA111444EAD57418BF1CEA85
:10395000131500F0C780A4EB05044FF0004545EABD
:10396000C12145EAC32341EA505143EA525304F1CD
:103970007F74994204F500344FEAC0204FEAC22216
:1039800008BF904200F09C804FEA13650FF240168A
:10399000765D4FEA134506FB05F7C7F1807706FB16
:1039A00007F74FEAD737A7FB03687642C8F5803898
:1039B000A7FB06CE38BFA8F1010807FB08E64FF0C9
:1039C000000EA6FB028CE6FB03CEDCF1000CCEF170
:1039D000004E38BFAEF1010EA6FB0C584FF00007A9
:1039E0004FF00005E6FB0E87A1FB08C6A0FB07CE43
:1039F00016EB0E0645F10005E1FB076515F1E04EFB
:103A00007EBFA4F580345FEA46066D4116F180075B
:103A100045F100054FEA17274FEA066647EA0567B2
:103A2000A6F1DE46B6F1805F4FEA15251FD938466C
:103A300024F0010C05EBC471BCF1FE6F01EB0C111D
:103A400002D8F0BCBDE8008124425CBF01F5801EB5
:103A50009EEAC47F02D4F0BCBDE80081244238D481
:103A6000F0BCA1F1C041BDE8004100F047B94FEA08
:103A7000D22242EA43524FEAD323A7FB02864FEAFF
:103A8000D02040EA415007FB03661EEA0E0F4FEAC2
:103A9000D12105FB026658BFA6EB0056B6EB0056D7
:103AA0004FEA520E4EEAC37E18EB0E0E56EB530E43
:103AB000BDD518EB02085E417F1C55F10005B6E745
:103AC0004FF480154FF000074FF000064FF000084C
:103AD000ADE7F0BC4FF0000001F1C04101F0004142
:103AE000BDE8008111EA0C1F0CEA131500D00CE0B0
:103AF00013EA0C1F00F025804FF00000F0BC81EAB3
:103B0000030101F00041BDE80081F0BCBDE80041C7
:103B100081EA030100F0F2B8F0BCBDE8004170B5E5
:103B200000F09EF8097EFC3E00F007B881EA030130
:103B30004FF0000001F00041704781EA030100F0FE
:103B4000DDB8F0BCBDE800414FF0000021497047EE
:103B5000FFFDFBF9F7F5F4F2F0EEEDEBE9E8E6E452
:103B6000E3E1E0DEDDDBDAD8D7D5D4D3D1D0CFCDD9
:103B7000CCCBCAC8C7C6C5C4C2C1C0BFBEBDBCBB12
:103B8000BAB9B8B7B6B5B4B3B2B1B0AFAEADACAB0D
:103B9000AAA9A8A8A7A6A5A4A3A3A2A1A09F9F9EE7
:103BA0009D9C9C9B9A999998979796959594939399
:103BB000929191908F8F8E8E8D8C8C8B8B8A898930
:103BC00088888787868585848483838282818180B3
:103BD0000000FF070000F87F4FEA1153A3F5806350
:103BE000D3F11E03A8BFD3F1200C08DB4FF0004235
:103BF00042EAC12252EA505232FA03F070470942B7
:103C00000BD4102BC4BF0020704703F5787CBCF1A7
:103C1000FF3F05D04FF0FF3070474FF00000704776
:103C200070B500F01DF800BF499224800020704755
:103C3000F0E710F0004248BF4042B0FA80F310FABB
:103C400003F10AD0C3F11D0303F580634FEA41502D
:103C500002EB035202EBD12170474FF00000704796
:103C60000EF1020E2EF0030E5EF8046B364205D400
:103C7000012A43EB030515F5001F12D8012841EB7B
:103C8000010C1CF5001F0CD80ED14FEAD17C15F5A4
:103C9000001F0CEB4C0C0CF1020C08BF4CEBD37C5E
:103CA00004E04FF0080C01E04FEAD37C0CEB4C052C
:103CB00026FA05F606F00706B6F1040C06D20EEB5E
:103CC000860CBDE870404CF0010C6047DFE80CF05A
:103CD000090B02024FF000414FF00000A1F5002156
:103CE00070BD19461046012851EB010418BFD4F5E8
:103CF000001484BF002001F0004170BD0808A0F549
:103D000000114FEA31017047FCF7BEBF0400000804
:103D10000000000000000002000100001000000090
:103D200000000000000000003031323334353637F7
:103D300038394142434445464030580030313233EF
:103D400034353637383961626364656640307800EF
:103D500002400000000000A000000000054000003C
:103D6000000000C8000000000C4000000000409C63
:103D700000000000194000000020BCBE0000000050
:103D800034400000BFC91B8E00000004B540000095
:103D9000504BCFD06607E2CF010000006C4100001D
:103DA0003E8251AADFEEA73401000000D942000094
:103DB000DCB5A0E23A301F97FFFFFFFFB4450000DB
:103DC000FD25A0C8E9A3C14FFFFFFFFFFF3F000093
:103DD0000000008000000000FF3F000000000080A5
:103DE00000000000303F000800000020C00F00006D
:103DF0006C01000860490008C00F00205812000044
:103E0000C80100081C00000043000000F8FFFFFF8D
:103E10000C0000000E0000000F0000002E0000004B
:103E20001001000043000000F8FFFFFF0040404089
:103E3000404040404040414141414140404040407D
:103E40004040404040404040404040404005020229
:103E500002020202020202020202020202202020E8
:103E60002020202020202002020202020202909044
:103E70009090909010101010101010101010101042
:103E80001010101010101010020202020202888896
:103E900088888888080808080808080808080808A2
:103EA000080808080808080802020202400000008A
:103EB0000000000000000000000000000000000002
:103EC00000000000000000000000000000000000F2
:103ED00000000000000000000000000000000000E2
:103EE00000000000000000000000000000000000D2
:103EF00000000000000000000000000000000000C2
:103F000000000000000000000000000000000000B1
:103F100000000000000000000000000000000000A1
:103F20000000000000000000000000000000000091
:103F3000011372F852331C100C0603912C40C07808
:103F400003112C043F040321367088FC0830261826
:103F500020FF211E14F008F033E0184D211C031E31
:103F600011338870000C101E2123241927211010F2
:103F7000160E45E018040225071820403D020418DB
:103F8000E0692C20180707174080F08040403F026E
:103F900002010F01022842F01D0101011F04912BB3
:103FA00080B066B1191D2901912A30A5592C1460E1
:103FB00018043C6018061D1EE010080810721F0F40
:103FC000102020100FF05310F83620203F20203C06
:103FD000700808C21E3028242221441E3008888818
:103FE00048082E1820202011CC3BC020322707047F
:103FF00024243F241AF8202308084B19212036E0F6
:10400000108888184B0F11101E380808C838202156
:10401000523F1A702E29608F1C222121221C9011E0
:104020001D31222211901961CAC0C26A80C6590886
:104030001C40201050170102040810204A400111B2
:104040004A04012119152A403219251B0402F21BCA
:104050007048D13AF0501A360F1EC030C828E870A8
:1040600028080718272423140B6F2A387E280D20D0
:104070003C23020227382008F888889F4B203FF015
:104080001BC0303F1B083830191019781B08F80F77
:10409000194039201B100F103E8888E8081010AC1A
:1040A00023201810112A035E2940223829402C228F
:1040B0001E024019A41809F808203F2101012125FA
:1040C0002A0852298129424149112EC08080807FCF
:1040D0000E2FF888C0281808501C0126382F2940B8
:1040E000292F29801B20301012F81AF81413203FB2
:1040F000190229204B30C0601A2074123F4BE01087
:10410000B06B0F10B029D01AF0301980220179203D
:104110003F18242438504FC04C888870C0140C308D
:10412000204B7088C11738202121221C3A189F4A41
:10413000188239A049D0112A1F90121F24087888AC
:104140001BC838151C07380E60191A1AF8201114EC
:10415000033C0714073C034814081868808068185B
:104160000820302C03032C30200838C82F59502940
:104170008F29102F203826212020681145FE0202A9
:1041800002257F4040401A0CE0611C0106380B19E3
:104190001D42FE191D527F1A04120211045A800199
:1041A0001930D91D391621180819242222223F203E
:1041B000AB390F115F3F112020110E21311A0E1063
:1041C0004B2011104B88F8102A10B359401A1F3F8A
:1041D0002B22130F16F0888888181A20D029D1496D
:1041E0007A21176B94949493603960190F4C203F97
:1041F00021F354809898793059121AC02719D1198F
:104200003039311F203F24022D30212A08128930F5
:1042100069D7294B2903190BC96079A019BF2B2035
:104220001FDD390F9C80FFA1E0191229D03BA0FFB0
:104230000C3950194112208A01C01B3324012A195C
:104240000F3AE0413952290F392349603C103F2091
:104250002C29053F010E3008060170291038080F7F
:10426000300C030C300F2C49A14E312E0E31200C96
:1042700029621D818E70183059D1215721302C228E
:10428000213055807C0202443F404072FF39083C97
:1042900002027C8F5440403F4E02010202042F4133
:1042A0001009109453321E3252104E7E4242427E0A
:1042B000374A4901393F100908CC4A49484ACC18C5
:1042C0001F7F88888482E01E26121252927F4A7EC7
:1042D00010244042CC1E829292F29E042A826A14DA
:1042E0007F20102BFC44013AFC77580C4444546462
:1042F000454644645444449FA96019495A92011B9D
:104300009E805F1A040128080C34040444847F0B47
:1043100029101C7C4444402901191029404A5501A8
:104320004940158060F807151CE0010633E01E2A9D
:1043300001F7180A804020130C13204080902809B0
:104340000202C2020202FE820119F75D4040407F74
:10435000042901111A08012C88780F072901111E60
:104360002010484641012A7F0559208BC838202E4D
:1043700008040201FF1C1901298118080808E8290E
:104380002E28E8251B0C0B06299F250949897F1C2F
:104390000F40800639401E08F8898E88012940297F
:1043A0009C1B1807884480403F19E01E84E43C278A
:1043B00024013AE4F01B0201421901394531180F7A
:1043C000FE0222DA0610D2565A535A56D2105F1005
:1043D0000E0810080710171515FD15151710193EB2
:1043E000145C44C41BBEAA012ABEEF180C017F1046
:1043F000103F020A1242827FF811180F403C10FF52
:10440000101020108F7808F808F820480C0602FFDA
:10441000010104422118468182300C3E222A3222B8
:10442000FE22322A223E18098868090929C9090F83
:10443000041D0929C808A0380984E41C0405C63CE9
:10444000A4A119601112FF180A828146281029467A
:10445000418071113FF808080C0A09E7516BFF41D0
:104460000152FF2C807E12012D3252921EF02E42FC
:1044700041405F5501365F404142025BE28201628A
:10448000FE7B3F40011A783E2919491F1904197013
:104490004D8040300F6871300C1011161010F01064
:1044A0001014131010108181414121110D030D11C1
:1044B00021414181811380701DFF201004012AFCDD
:1044C0000511278060180708306440807F1C3E2259
:1044D000E2F92BFE220113E20217203F201F1111E7
:1044E0002B7F44011347401934280AF484D4A5A62D
:1044F000A4D484F44011180EFE0202123A161312CC
:104500001A3242827E7E161010FF1090299D1C9256
:10451000A29EE01D44827F019D100880432C102C38
:104520004380101012EAAFAAEA0FFA02888C5724CF
:10453000548C841F0202EAAAAAAB02190114EA02EF
:104540000215404042CC1C40A09E40459EA0202029
:104550001D3F9088403E5E28464180802019012AF8
:10456000FF0542402B7F20E962FF1C202024011818
:1045700008BF642434282422403F10080402FF4965
:1045800001392258080202F2121212F2062A0239E6
:104590001B0146FC49062110104458C07FD0482614
:1045A00022E23AA222222A062C80601F611D1312E9
:1045B00012FF321210CA80010112163E22E2223E80
:1045C0002B1088DF3117407E403F2222200901FE58
:1045D000424242FE010116F848FF48F830084262A4
:1045E000D24AC642C0160F04FF040F180844221115
:1045F0004C83403F3019DF11200AE2222A2AF22A96
:104600002622E0101080403F4080FF898989BF89C1
:10461000A9C9BF80104BD6C7C4DCD3EFD2F4B5BC58
:10462000C3A4D2C7D5FDD7F3D3D2C7B0B7BDD3D0BB
:10463000D5CFB0ADCEEFBADAD2B9B0D7D6E7D2D1B6
:10464000BFAAB9D8B5C6BEE0C0EBB1A8BEAFC9E835
:10465000BCC6D5DFC0F6BBD4D2BBC2B7B3A9CDA808
:10466000006025202122232425262728292A2B2CD7
:104670002D2E2F303132333435363738393A3B3CF2
:104680003D3E3F404142434445464748494A4B4CE2
:104690004D4E4F505152535455565758595A5B5CD2
:1046A0005D5E5F606162636465666768696A6B6CC2
:1046B0006D6E6F707172737475767778797A7B7CB2
:1046C0007D7E2C6C7E7A01000B1774706060E0C0F8
:1046D000C0C080801B80801E4DE060607430022E60
:1046E0006C193D2833E0E0F0F0F8F8F8FCFCFCBE73
:1046F000BEFEFED6DFDFFF7F7F7FBFFFF7F7FFBF86
:104700007FFFFEFEEECEECFCFCF8F9B9337367E6F2
:10471000CECC9C18B0F0E001280DF030189C8CCE67
:10472000E6E77373B9F93C6EEECEEEFEFE37180B7A
:104730007F7FFFDFDFD7F67EBEBE1A195C2AF0341A
:104740000A10C0C25BFEFF01180AD89FBFFF7D7D23
:10475000EDF3FF12181976373B3F3F3BB9FBDFFF04
:10476000FF3DBEB77773F7FFFFFC7F7FF7FE552C49
:10477000FFF5F30F180B1F6D1FFFFFF677F3F1FF27
:10478000AB2813FF73777FFCFFFFF7737737BFBC4E
:10479000FFFFDFFBF93F2C3776EF4C6808E1FD7D2A
:1047A000FFBF9FD867F3FE7C1F01030F0F1F1F4E33
:1047B00069011822FBFDBEDBDF9F3BFBFBF71FFC03
:1047C000F13FFFFC86B7D36DEDBEFAFB6DBDF6FB86
:1047D0007BBDDDFEFE5512F01CF408F94D1820FEDD
:1047E0007EDDBD7FFBF6BE6D7BDBF6F56DCBFF8618
:1047F000FDFE1FF3FC1EE7F7FB3B9FDFDBBE94795A
:10480000570008193F1F1F0F0F07032D03071F3FF6
:10481000E01DFFFBF7EFC4581ADCDFDFDFEE77F9AE
:10482000FCDFFF6F6F66F3FBDDCEE673B99DCEE76D
:10483000BBFD4F6A06D01817B9F3C68C193367CE83
:104840009DF9F367676D7FDFFCBD7FFFEDDF401BE8
:10485000FFFF48290107277F3F1F0F03012C01019C
:1048600003012AFB891AFC051816EEE7E7E70FFE9D
:10487000FCF9FFFEFDEE67F97EF7FFCFFFFF017742
:104880001BC0FE081A3F631811F76FFDF7EFDDFE3E
:10489000FFB3FDFE8FD7E7E7E6782BFEF13E394800
:1048A0000A26017801103D030F1F7FBE1014F7F791
:1048B000E7F7FF8F83FF7F7FFBFBFBE7FFFEFF3FF9
:1048C0000C19171A0304211A3F061AE718580BFF90
:1048D0007FFF83AFDFFFE7F7F7F20B360F0779C1F2
:1048E000580C010303070F0F1F1F3F3F7F011A7E64
:1048F000041C3F3F1F5E2D01070F1F172A7E13293F
:104900000119171D1F0F0F07F401252808C0F0F823
:10491000FCFCFEEE0A2BC0406C19501969363F1E94
:104920001E0E04181580808CECF0F8F8FFFFF8F8E4
:10493000F0EC8C808001013137211BFFFF658C3743
:104940003101642D0102030404000911060708095E
:10495000020406082BA24A50792C292831331E1450
:0400000508000131BD
:00000001FF
